:020000040800F2
:1000000000040020C10100081105000811050008C6
:100010001105000811050008110500081105000868
:1000200011050008110500081105000891040008D9
:100030001105000811050008110500081105000848
:100040001105000811050008110500081105000838
:100050001105000811050008110500081105000828
:100060001105000811050008110500081105000818
:100070001105000811050008110500081105000808
:1000800011050008110500081105000811050008F8
:1000900011050008110500081105000811050008E8
:1000A000110500087103000811050008E1030008AC
:1000B000F1030008110500081105000811050008EA
:1000C00011050008110500081105000811050008B8
:1000D00011050008110500081105000811050008A8
:1000E0001105000811050008110500081105000898
:1000F0001105000811050008110500081105000888
:100100001105000811050008110500081105000877
:100110001105000811050008110500081105000867
:100120001105000811050008110500081105000857
:100130001105000811050008110500081105000847
:100140001105000811050008110500081105000837
:100150001105000811050008110500081105000827
:100160001105000811050008110500081105000817
:100170001105000811050008110500081105000807
:1001800011050008110500081105000811050008F7
:1001900011050008110500081105000811050008E7
:1001A00011050008110500081105000811050008D7
:1001B00011050008110500081105000811050008C7
:1001C00072B6264880F3098825484EF60851CEF2CB
:1001D00000010860022080F31488BFF36F8F00F0E5
:1001E0003FFD00F02DFC4FF055301E491E4A914254
:1001F0003CBF41F8040BFAE71C49184A91423CBF46
:1002000041F8040BFAE71A491A4A1B4B9A423EBFBF
:1002100051F8040B42F8040BF8E700201749184A7C
:1002200091423CBF41F8040BFAE700F0D9FC00F022
:100230000FFD144C144DAC4203DA54F8041B8847EC
:10024000F9E700F06DF9114C114DAC4203DA54F8A6
:10025000041B8847F9E700F0F3BC00000008002009
:10026000000000080000002000040020000400201E
:10027000040D000800080020340800203808002081
:10028000D0090020C0010008C0010008C00100081A
:10029000C00100082DE9F04FC1F80CD0C3689D469D
:1002A000BDE8F08F002383F311882846A047002083
:1002B00000F036FC00F074FC00DFFEE700000000F8
:1002C000014B5B6883607047001000E00000000095
:1002D00070B4202383F311880B4E0C4A33681568E1
:1002E000013B4C420B444A1E111803EA0400214012
:1002F0002B1A99429ABF091831600020002383F31A
:10030000118870BC704700BFCC090020C8090020CC
:10031000202383F31188114B5B6813F4006302D12F
:1003200083F31188704780B400AFEFF309834FF077
:10033000807243F8042CA3F1200282F30988084A52
:10034000116892698968926891428CBF054A064A91
:1003500043F8082CBD4680BC704700BF00ED00E0AC
:1003600054080020B5020008B80200080000000090
:1003700038B5174DAB691C69DA681440E2B2D24354
:100380001A61A30704D56B681B690BB1284698470F
:10039000600704D56B689B690BB10D48984721072E
:1003A00004D56B681B6A0BB109489847E20604D56F
:1003B0006B689B6A0BB106489847E30704D56B68E6
:1003C0009B680BB102489847BDE83840FFF7A0BFD3
:1003D00038080020000000000000000000000000BD
:1003E000FFF7C6BF00000000000000000000000092
:1003F0002DE9F8434FF0804633699B0703D4BDE8ED
:10040000F843FFF785BF00253561202787F3118862
:100410001B4C716AE369A26AD3F808E0881A704538
:1004200004F11C0819D31968D3F80C9072444145A3
:10043000A262C1F80480E161DD6008BFF56085F368
:1004400011881869C84787F31188E369716AA26A3D
:10045000D3F808E0881A8645E5D9434508D07244A8
:10046000521A4FF08043022A2CBF8A188A1C5A6302
:10047000002383F31188BDE8F843FFF749BF00BFAD
:1004800054080020000000000000000000000000F0
:1004900080B400AFEFF30983203383F3098800238E
:1004A00083F31188BD4680BC704700BF0000000088
:1004B0000E4B0F4A5B68C168F0B48768566F42689C
:1004C000D0E90445DB1B9B1BE41845F10005934272
:1004D000026888BF436001319342C0E90445C160AE
:1004E000836038BF0360F0BC704700BF001000E0BD
:1004F0005408002000000000000000000000000080
:10050000FEE700BF00000000000000000000000047
:10051000FEE700BF00000000000000000000000037
:1005200080B5B44C86B0002504F11C024FF0FF33B7
:1005300068460026002724606460E26122626362EC
:100540000093CDE9046724616461A560A5626567D5
:10055000019502950395FFF7B3FE6846FFF7A8FFE4
:10056000A54BA649A6481860A64AA7480860A7490F
:100570001160A749A74ECA6867690298DFF8E0E2F0
:1005800060674FF6FF0C02EA0C0216438022A2635A
:10059000E266C4F848E004F1300003F1100E0122D5
:1005A00084F8515065669D616764C3F810E0C3F834
:1005B00014E084F85220A56624643861964FCE601A
:1005C000FE689D6046F08076FE60944EDD6004F12A
:1005D000580704F15C0384F850206061A061A765AE
:1005E000E564E365236633681027134320203360F6
:1005F000CF7781F8220085F3118862B680F31188E5
:10060000874B6069C3F89820C3F8CC2083F8B220E8
:100610008449854F854ED96603F16C02C3F89C204E
:1006200003F19001022283F8B020C3F8A40083F8FC
:10063000B150C3F8C450C3F88C70C3F8A8601D67EC
:10064000C3F8C850C3F8A040C3F8AC300161A26938
:10065000C3F8B4509068616103F1BC0603F1B807B8
:10066000C3F8B870C3F8BC60C3F8C060002800F0DD
:10067000488183F8B0502468A268002AFBD1C3F8EF
:1006800090406068C3F894000160616082F3118853
:10069000674B684C19694FF0FF3119611A6158694D
:1006A00059615A61186A60F0805018621A62586A7B
:1006B00059625A62196C41F080511964216841F401
:1006C00080712160196F01F44071B1F5007F03D092
:1006D0004FF4803119671A675649DFF854C14B68E7
:1006E000554ADFF88081554EDFF87CE1544C554D7A
:1006F000554823F400734B60DCF8303043F01F039F
:10070000CCF83030DCF85070002347F01F076FF44E
:100710008A69CCF8507053604FF6DF77C2F80890C2
:10072000C2F80C804FF4EE494FF42A285761C2F802
:1007300020904FF0FF37C2F824804FF05539C2F8AF
:1007400000E04FF6FF784FF0800E7360B760C6F898
:100750000C90C6F8148033627362C6F800E03B4E1A
:10076000636001F5D631A760E660C4F814802362A7
:1007700063622360364C6B60364EAF60C5F80C90F8
:10078000C5F814802B626B622B6001254360876083
:10079000C0F80C90C0F814800362436203604B60A1
:1007A0008F60CE60C1F814800B624B620B602570C5
:1007B000DCF84010284863602943CCF84010816879
:1007C000E360294381604FF08041DFF8A080234E31
:1007D00042F2CF0088624FF080590420CF624FF080
:1007E0000F0C8B612F4620744B631846A661CB60BB
:1007F0003EE000BF54080020A8090020CC090020DA
:10080000D1020008C8090020D00900200080012082
:1008100000ED00E00003FA05F0ED00E0001000E05C
:10082000D008002001050008A50200087C0C000883
:100830000038024000700040000002400004024006
:1008400000080240000C02400010024055555501BE
:100850003808002050555555002004E000000140A4
:10086000640C000805511564A004802A00E100E032
:1008700002264B604D610D6088F81CE34FF48065E3
:10088000C8F880914FF0030EC8F800900A2800F1D4
:1008900001004FEA400100F007034FEA83030EFA1C
:1008A00001F107FA03F94FEA55054FEA860607FA00
:1008B00000F86FEA01010CFA03F32DD015F0010FD7
:1008C000E4D0D2F804A02AEA0808C2F80480D2F8DA
:1008D000088008EA0108C2F80880D2F80C800728CE
:1008E00001EA0808C2F80C800ED8D2F8208028EA65
:1008F000030343EA0903136213680B403343136095
:10090000C4E782F82000FEE7D2F8248028EA030337
:1009100043EA09035362EFE7202383F31188434935
:1009200023784E686160012BA6605CD0A269606983
:100930000023136053639363D36313645362CB68E0
:100940000D68B0FBF5F003F00F03751E0138CE6A99
:100950009062012BD562566003D0022B0CBF03239B
:100960000023486900F00F00012803D0022803D1BA
:1009700043F0200343F01003C86900F00F00012882
:1009800003D0022803D143F4007343F48073486A10
:1009900000F00F00012803D0022803D143F40053D4
:1009A00043F48053096B136221F0FF0100230127F8
:1009B0004FF400468525022057611361D1605664CB
:1009C0001560E360207083F31188202282F3118880
:1009D000E268A16942F0040241F28830E260C86333
:1009E00083F31188FEE7124D12486F6CA2696061B3
:1009F00047F001076F646F6A0F4B47F001076F62A2
:100A000000276F6270254FF0007783F81953C3F801
:100A100080711F6083F81B534FF0006746F668052E
:100A2000C3F880711F609561D56188E700080020D8
:100A30000038024000BD010500E100E000000000B8
:100A40002E4A2F4B4FF080504FF400411064196034
:100A5000136843F00103136013689807FCD593688B
:100A6000264923F003039360936893608B6813F027
:100A70000C03FBD10868214A00F0F90008608B6084
:100A80004B6F43F001034B67536F9907FCD51D4B28
:100A9000536013681A4943F0807313604B685A041B
:100AA000FCD5164A13689B01FCD5174B174991607A
:100AB0001A68174B9A4216D0164B40F202721A600F
:100AC0000E4A936843F002039360936803F00C03AB
:100AD000082BFAD1536C43F480435364536E43F4B0
:100AE0008043536670470C4A0C4B12689A42E3D11C
:100AF000084B4FF481721A60E2E700BF00380240F1
:100B00000070004010540107002004E000108838F5
:100B100011640020003C024000ED00E041C20F41A2
:100B2000F0B4202383F311881B4FBD69AC6A68625F
:100B300005F12800844218BF002611D02268164B08
:100B4000A168AA6284F820601B689A688A42FBD276
:100B50005A686260236014605C60AC6A8442EDD1C4
:100B600095F8223043B995F821309B0704D16B6981
:100B70002A691A612A695361B9693B680F2281F8B1
:100B800020201A683A600124576083F82040BB6136
:100B90001846F0BCFFF77EBB5408002000000000A0
:100BA0000E4A1068036830B4012194695A60002528
:100BB00080F82010A1681360906184F8205000E054
:100BC0001B689A689142FBD35A6862602360214691
:100BD00014605C6030BCFFF75DBB00BF54080020B0
:100BE000F0B5124F124D134C134B144907F1800E00
:100BF00000269C4211D904391A4651F8040F42F8D4
:100C0000040B9442F9D8DA43144424F00304043466
:100C100023449D4203D943F8046B9D42FBD810370F
:100C2000774502D297E83A00E3E7F0BD840C00086C
:100C3000D0090020D0090020D0090020380D00087C
:100C4000FEE700BF00000000000000000000000000
:100C5000704700BF0000000000000000000000001E
:040C6000704700BF1A
:100C64006D61696E00160020040444080C10141809
:100C74001C2021220000000069646C650000000053
:100C8400380D0008D0090020D0090020D009002028
:100C9400380D000800000000000000000000000003
:100CA400380D0008000000000000000000000000F3
:100CB400380D0008000000000000000000000000E3
:100CC400380D0008000000000000000000000000D3
:100CD400380D0008000000000000000000000000C3
:100CE400380D0008000000000000000000000000B3
:100CF400380D0008000000000000000000000000A3
:100D040020A10700102700000000000000000000E0
:100D140000000000000000000000000001000000CE
:100D240000000000000000000000000000000000BF
:040D340000000000BB
:04000005080001C12D
:00000001FF
